{
  "contractName": "Logistics",
  "abi": [
    {
      "anonymous": false,
      "inputs": [
        {
          "indexed": false,
          "internalType": "uint256",
          "name": "orderId",
          "type": "uint256"
        },
        {
          "indexed": false,
          "internalType": "address",
          "name": "sender",
          "type": "address"
        },
        {
          "indexed": false,
          "internalType": "address",
          "name": "recipient",
          "type": "address"
        },
        {
          "indexed": false,
          "internalType": "uint256",
          "name": "price",
          "type": "uint256"
        }
      ],
      "name": "OrderAdded",
      "type": "event"
    },
    {
      "anonymous": false,
      "inputs": [
        {
          "indexed": false,
          "internalType": "uint256",
          "name": "orderId",
          "type": "uint256"
        },
        {
          "indexed": false,
          "internalType": "string",
          "name": "changeDescription",
          "type": "string"
        },
        {
          "indexed": false,
          "internalType": "uint256",
          "name": "timestamp",
          "type": "uint256"
        }
      ],
      "name": "OrderChanged",
      "type": "event"
    },
    {
      "anonymous": false,
      "inputs": [
        {
          "indexed": false,
          "internalType": "uint256",
          "name": "orderId",
          "type": "uint256"
        },
        {
          "indexed": false,
          "internalType": "uint256",
          "name": "amount",
          "type": "uint256"
        }
      ],
      "name": "OrderPaid",
      "type": "event"
    },
    {
      "inputs": [
        {
          "internalType": "uint256",
          "name": "",
          "type": "uint256"
        }
      ],
      "name": "orderChanges",
      "outputs": [
        {
          "internalType": "uint256",
          "name": "orderId",
          "type": "uint256"
        },
        {
          "internalType": "string",
          "name": "changeDescription",
          "type": "string"
        },
        {
          "internalType": "uint256",
          "name": "timestamp",
          "type": "uint256"
        }
      ],
      "stateMutability": "view",
      "type": "function",
      "constant": true
    },
    {
      "inputs": [
        {
          "internalType": "uint256",
          "name": "",
          "type": "uint256"
        }
      ],
      "name": "orders",
      "outputs": [
        {
          "internalType": "address",
          "name": "sender",
          "type": "address"
        },
        {
          "internalType": "address",
          "name": "recipient",
          "type": "address"
        },
        {
          "internalType": "uint256",
          "name": "distance",
          "type": "uint256"
        },
        {
          "internalType": "string",
          "name": "cargoType",
          "type": "string"
        },
        {
          "internalType": "uint256",
          "name": "price",
          "type": "uint256"
        },
        {
          "internalType": "bool",
          "name": "isPaid",
          "type": "bool"
        },
        {
          "internalType": "bool",
          "name": "isCompleted",
          "type": "bool"
        },
        {
          "internalType": "bool",
          "name": "isCancelled",
          "type": "bool"
        },
        {
          "internalType": "uint256",
          "name": "escrow",
          "type": "uint256"
        }
      ],
      "stateMutability": "view",
      "type": "function",
      "constant": true
    },
    {
      "inputs": [
        {
          "internalType": "uint256",
          "name": "",
          "type": "uint256"
        }
      ],
      "name": "reviews",
      "outputs": [
        {
          "internalType": "uint256",
          "name": "orderId",
          "type": "uint256"
        },
        {
          "internalType": "address",
          "name": "reviewer",
          "type": "address"
        },
        {
          "internalType": "string",
          "name": "comment",
          "type": "string"
        },
        {
          "internalType": "uint256",
          "name": "rating",
          "type": "uint256"
        }
      ],
      "stateMutability": "view",
      "type": "function",
      "constant": true
    },
    {
      "inputs": [
        {
          "internalType": "address",
          "name": "_recipient",
          "type": "address"
        },
        {
          "internalType": "uint256",
          "name": "_distance",
          "type": "uint256"
        },
        {
          "internalType": "string",
          "name": "_cargoType",
          "type": "string"
        },
        {
          "internalType": "string",
          "name": "_price",
          "type": "string"
        }
      ],
      "name": "addOrder",
      "outputs": [],
      "stateMutability": "nonpayable",
      "type": "function"
    },
    {
      "inputs": [
        {
          "internalType": "uint256",
          "name": "_orderId",
          "type": "uint256"
        }
      ],
      "name": "payForOrder",
      "outputs": [],
      "stateMutability": "payable",
      "type": "function",
      "payable": true
    },
    {
      "inputs": [
        {
          "internalType": "uint256",
          "name": "_orderId",
          "type": "uint256"
        },
        {
          "internalType": "string",
          "name": "_comment",
          "type": "string"
        },
        {
          "internalType": "uint256",
          "name": "_rating",
          "type": "uint256"
        }
      ],
      "name": "completeOrder",
      "outputs": [],
      "stateMutability": "nonpayable",
      "type": "function"
    },
    {
      "inputs": [
        {
          "internalType": "uint256",
          "name": "_orderId",
          "type": "uint256"
        }
      ],
      "name": "cancelOrder",
      "outputs": [],
      "stateMutability": "nonpayable",
      "type": "function"
    },
    {
      "inputs": [
        {
          "internalType": "uint256",
          "name": "_orderId",
          "type": "uint256"
        }
      ],
      "name": "getOrderChanges",
      "outputs": [
        {
          "components": [
            {
              "internalType": "uint256",
              "name": "orderId",
              "type": "uint256"
            },
            {
              "internalType": "string",
              "name": "changeDescription",
              "type": "string"
            },
            {
              "internalType": "uint256",
              "name": "timestamp",
              "type": "uint256"
            }
          ],
          "internalType": "struct Logistics.OrderChange[]",
          "name": "",
          "type": "tuple[]"
        }
      ],
      "stateMutability": "view",
      "type": "function",
      "constant": true
    },
    {
      "inputs": [],
      "name": "getOrderCount",
      "outputs": [
        {
          "internalType": "uint256",
          "name": "",
          "type": "uint256"
        }
      ],
      "stateMutability": "view",
      "type": "function",
      "constant": true
    },
    {
      "inputs": [],
      "name": "getReviewCount",
      "outputs": [
        {
          "internalType": "uint256",
          "name": "",
          "type": "uint256"
        }
      ],
      "stateMutability": "view",
      "type": "function",
      "constant": true
    },
    {
      "inputs": [
        {
          "internalType": "uint256",
          "name": "_orderId",
          "type": "uint256"
        }
      ],
      "name": "getReviewsByOrder",
      "outputs": [
        {
          "components": [
            {
              "internalType": "uint256",
              "name": "orderId",
              "type": "uint256"
            },
            {
              "internalType": "address",
              "name": "reviewer",
              "type": "address"
            },
            {
              "internalType": "string",
              "name": "comment",
              "type": "string"
            },
            {
              "internalType": "uint256",
              "name": "rating",
              "type": "uint256"
            }
          ],
          "internalType": "struct Logistics.Review[]",
          "name": "",
          "type": "tuple[]"
        }
      ],
      "stateMutability": "view",
      "type": "function",
      "constant": true
    },
    {
      "inputs": [
        {
          "internalType": "uint256",
          "name": "startIndex",
          "type": "uint256"
        },
        {
          "internalType": "uint256",
          "name": "endIndex",
          "type": "uint256"
        }
      ],
      "name": "getOrders",
      "outputs": [
        {
          "components": [
            {
              "internalType": "address",
              "name": "sender",
              "type": "address"
            },
            {
              "internalType": "address",
              "name": "recipient",
              "type": "address"
            },
            {
              "internalType": "uint256",
              "name": "distance",
              "type": "uint256"
            },
            {
              "internalType": "string",
              "name": "cargoType",
              "type": "string"
            },
            {
              "internalType": "uint256",
              "name": "price",
              "type": "uint256"
            },
            {
              "internalType": "bool",
              "name": "isPaid",
              "type": "bool"
            },
            {
              "internalType": "bool",
              "name": "isCompleted",
              "type": "bool"
            },
            {
              "internalType": "bool",
              "name": "isCancelled",
              "type": "bool"
            },
            {
              "internalType": "uint256",
              "name": "escrow",
              "type": "uint256"
            }
          ],
          "internalType": "struct Logistics.Order[]",
          "name": "",
          "type": "tuple[]"
        }
      ],
      "stateMutability": "view",
      "type": "function",
      "constant": true
    }
  ],
  "bytecode": "0x608060405234801561001057600080fd5b50612cd1806100206000396000f3fe6080604052600436106100a75760003560e01c80638d0a5fbb116100645780638d0a5fbb146101ce5780638f72fc77146101f9578063a85c38ef14610236578063d9c2dcee1461027b578063e83ddcea14610297578063fe95d765146102d7576100a7565b8063039a1c73146100ac5780634e5d1682146100d5578063514fcac7146100fe578063637267df14610127578063709dc7fb146101645780637b40e3111461018f575b600080fd5b3480156100b857600080fd5b506100d360048036038101906100ce9190611b6f565b610314565b005b3480156100e157600080fd5b506100fc60048036038101906100f79190611c3c565b61062e565b005b34801561010a57600080fd5b5061012560048036038101906101209190611cdb565b6108cb565b005b34801561013357600080fd5b5061014e60048036038101906101499190611cdb565b610abb565b60405161015b9190611eb1565b60405180910390f35b34801561017057600080fd5b50610179610cd1565b6040516101869190611ee2565b60405180910390f35b34801561019b57600080fd5b506101b660048036038101906101b19190611cdb565b610cde565b6040516101c593929190611f47565b60405180910390f35b3480156101da57600080fd5b506101e3610da0565b6040516101f09190611ee2565b60405180910390f35b34801561020557600080fd5b50610220600480360381019061021b9190611f85565b610dac565b60405161022d9190612176565b60405180910390f35b34801561024257600080fd5b5061025d60048036038101906102589190611cdb565b6110da565b604051610272999897969594939291906121b6565b60405180910390f35b61029560048036038101906102909190611cdb565b611227565b005b3480156102a357600080fd5b506102be60048036038101906102b99190611cdb565b6113d9565b6040516102ce949392919061224a565b60405180910390f35b3480156102e357600080fd5b506102fe60048036038101906102f99190611cdb565b6114c1565b60405161030b91906123bb565b60405180910390f35b6000808481548110610329576103286123dd565b5b906000526020600020906007020190508060010160009054906101000a900473ffffffffffffffffffffffffffffffffffffffff1673ffffffffffffffffffffffffffffffffffffffff163373ffffffffffffffffffffffffffffffffffffffff16146103cb576040517f08c379a00000000000000000000000000000000000000000000000000000000081526004016103c29061247e565b60405180910390fd5b8060050160009054906101000a900460ff1661041c576040517f08c379a000000000000000000000000000000000000000000000000000000000815260040161041390612510565b60405180910390fd5b8060050160019054906101000a900460ff161561046e576040517f08c379a0000000000000000000000000000000000000000000000000000000008152600401610465906125a2565b60405180910390fd5b8060050160029054906101000a900460ff16156104c0576040517f08c379a00000000000000000000000000000000000000000000000000000000081526004016104b79061260e565b60405180910390fd5b60018160050160016101000a81548160ff0219169083151502179055508060000160009054906101000a900473ffffffffffffffffffffffffffffffffffffffff1673ffffffffffffffffffffffffffffffffffffffff166108fc82600601549081150290604051600060405180830381858888f1935050505015801561054b573d6000803e3d6000fd5b50600160405180608001604052808681526020013373ffffffffffffffffffffffffffffffffffffffff1681526020018581526020018481525090806001815401808255809150506001900390600052602060002090600402016000909190919091506000820151816000015560208201518160010160006101000a81548173ffffffffffffffffffffffffffffffffffffffff021916908373ffffffffffffffffffffffffffffffffffffffff160217905550604082015181600201908051906020019061061b92919061185f565b5060608201518160030155505050505050565b3373ffffffffffffffffffffffffffffffffffffffff168473ffffffffffffffffffffffffffffffffffffffff160361069c576040517f08c379a0000000000000000000000000000000000000000000000000000000008152600401610693906126a0565b60405180910390fd5b60006106a78261172d565b905060006040518061012001604052803373ffffffffffffffffffffffffffffffffffffffff1681526020018773ffffffffffffffffffffffffffffffffffffffff1681526020018681526020018581526020018381526020016000151581526020016000151581526020016000151581526020016000815250908060018154018082558091505060019003906000526020600020906007020160009091909190915060008201518160000160006101000a81548173ffffffffffffffffffffffffffffffffffffffff021916908373ffffffffffffffffffffffffffffffffffffffff16021790555060208201518160010160006101000a81548173ffffffffffffffffffffffffffffffffffffffff021916908373ffffffffffffffffffffffffffffffffffffffff1602179055506040820151816002015560608201518160030190805190602001906107fe92919061185f565b506080820151816004015560a08201518160050160006101000a81548160ff02191690831515021790555060c08201518160050160016101000a81548160ff02191690831515021790555060e08201518160050160026101000a81548160ff021916908315150217905550610100820151816006015550507fb86b42a1c9549d8c493944734280cd2a3b9fd72ab4aaf0ea4eb4d34d3cc3ecca60016000805490506108a991906126ef565b3387846040516108bc9493929190612723565b60405180910390a15050505050565b60008082815481106108e0576108df6123dd565b5b906000526020600020906007020190508060000160009054906101000a900473ffffffffffffffffffffffffffffffffffffffff1673ffffffffffffffffffffffffffffffffffffffff163373ffffffffffffffffffffffffffffffffffffffff1614610982576040517f08c379a0000000000000000000000000000000000000000000000000000000008152600401610979906127da565b60405180910390fd5b8060050160019054906101000a900460ff16156109d4576040517f08c379a00000000000000000000000000000000000000000000000000000000081526004016109cb9061286c565b60405180910390fd5b60018160050160026101000a81548160ff0219169083151502179055508060050160009054906101000a900460ff1615610a78578060000160009054906101000a900473ffffffffffffffffffffffffffffffffffffffff1673ffffffffffffffffffffffffffffffffffffffff166108fc82600601549081150290604051600060405180830381858888f19350505050158015610a76573d6000803e3d6000fd5b505b610ab7826040518060400160405280601681526020017f546865206f72646572207761732063616e63656c6564000000000000000000008152506117a7565b5050565b60606000805b600280549050811015610b1c578360028281548110610ae357610ae26123dd565b5b90600052602060002090600302016000015403610b09578180610b059061288c565b9250505b8080610b149061288c565b915050610ac1565b5060008167ffffffffffffffff811115610b3957610b38611a44565b5b604051908082528060200260200182016040528015610b7257816020015b610b5f6118e5565b815260200190600190039081610b575790505b5090506000805b600280549050811015610cc5578560028281548110610b9b57610b9a6123dd565b5b90600052602060002090600302016000015403610cb25760028181548110610bc657610bc56123dd565b5b906000526020600020906003020160405180606001604052908160008201548152602001600182018054610bf990612903565b80601f0160208091040260200160405190810160405280929190818152602001828054610c2590612903565b8015610c725780601f10610c4757610100808354040283529160200191610c72565b820191906000526020600020905b815481529060010190602001808311610c5557829003601f168201915b50505050508152602001600282015481525050838381518110610c9857610c976123dd565b5b60200260200101819052508180610cae9061288c565b9250505b8080610cbd9061288c565b915050610b79565b50819350505050919050565b6000600180549050905090565b60028181548110610cee57600080fd5b9060005260206000209060030201600091509050806000015490806001018054610d1790612903565b80601f0160208091040260200160405190810160405280929190818152602001828054610d4390612903565b8015610d905780601f10610d6557610100808354040283529160200191610d90565b820191906000526020600020905b815481529060010190602001808311610d7357829003601f168201915b5050505050908060020154905083565b60008080549050905090565b606082821015610df1576040517f08c379a0000000000000000000000000000000000000000000000000000000008152600401610de8906129a6565b60405180910390fd5b6000805490508210610e38576040517f08c379a0000000000000000000000000000000000000000000000000000000008152600401610e2f90612a12565b60405180910390fd5b600060018484610e4891906126ef565b610e529190612a32565b905060008167ffffffffffffffff811115610e7057610e6f611a44565b5b604051908082528060200260200182016040528015610ea957816020015b610e96611906565b815260200190600190039081610e8e5790505b50905060005b828110156110ce5760008187610ec59190612a32565b81548110610ed657610ed56123dd565b5b9060005260206000209060070201604051806101200160405290816000820160009054906101000a900473ffffffffffffffffffffffffffffffffffffffff1673ffffffffffffffffffffffffffffffffffffffff1673ffffffffffffffffffffffffffffffffffffffff1681526020016001820160009054906101000a900473ffffffffffffffffffffffffffffffffffffffff1673ffffffffffffffffffffffffffffffffffffffff1673ffffffffffffffffffffffffffffffffffffffff16815260200160028201548152602001600382018054610fb690612903565b80601f0160208091040260200160405190810160405280929190818152602001828054610fe290612903565b801561102f5780601f106110045761010080835404028352916020019161102f565b820191906000526020600020905b81548152906001019060200180831161101257829003601f168201915b50505050508152602001600482015481526020016005820160009054906101000a900460ff161515151581526020016005820160019054906101000a900460ff161515151581526020016005820160029054906101000a900460ff161515151581526020016006820154815250508282815181106110b0576110af6123dd565b5b602002602001018190525080806110c69061288c565b915050610eaf565b50809250505092915050565b600081815481106110ea57600080fd5b90600052602060002090600702016000915090508060000160009054906101000a900473ffffffffffffffffffffffffffffffffffffffff16908060010160009054906101000a900473ffffffffffffffffffffffffffffffffffffffff169080600201549080600301805461115f90612903565b80601f016020809104026020016040519081016040528092919081815260200182805461118b90612903565b80156111d85780601f106111ad576101008083540402835291602001916111d8565b820191906000526020600020905b8154815290600101906020018083116111bb57829003601f168201915b5050505050908060040154908060050160009054906101000a900460ff16908060050160019054906101000a900460ff16908060050160029054906101000a900460ff16908060060154905089565b600080828154811061123c5761123b6123dd565b5b906000526020600020906007020190508060000160009054906101000a900473ffffffffffffffffffffffffffffffffffffffff1673ffffffffffffffffffffffffffffffffffffffff163373ffffffffffffffffffffffffffffffffffffffff16146112de576040517f08c379a00000000000000000000000000000000000000000000000000000000081526004016112d590612afa565b60405180910390fd5b8060050160009054906101000a900460ff1615611330576040517f08c379a000000000000000000000000000000000000000000000000000000000815260040161132790612b66565b60405180910390fd5b80600401543414611376576040517f08c379a000000000000000000000000000000000000000000000000000000000815260040161136d90612bf8565b60405180910390fd5b60018160050160006101000a81548160ff0219169083151502179055503481600601819055507f7c32ca00142334d942c919d338fa31921d5108c316aebd0347bcda69ee8167c982346040516113cd929190612c18565b60405180910390a15050565b600181815481106113e957600080fd5b90600052602060002090600402016000915090508060000154908060010160009054906101000a900473ffffffffffffffffffffffffffffffffffffffff169080600201805461143890612903565b80601f016020809104026020016040519081016040528092919081815260200182805461146490612903565b80156114b15780601f10611486576101008083540402835291602001916114b1565b820191906000526020600020905b81548152906001019060200180831161149457829003601f168201915b5050505050908060030154905084565b60606000805b6001805490508110156115225783600182815481106114e9576114e86123dd565b5b9060005260206000209060040201600001540361150f57818061150b9061288c565b9250505b808061151a9061288c565b9150506114c7565b5060008167ffffffffffffffff81111561153f5761153e611a44565b5b60405190808252806020026020018201604052801561157857816020015b611565611984565b81526020019060019003908161155d5790505b5090506000805b6001805490508110156117215785600182815481106115a1576115a06123dd565b5b9060005260206000209060040201600001540361170e57600181815481106115cc576115cb6123dd565b5b9060005260206000209060040201604051806080016040529081600082015481526020016001820160009054906101000a900473ffffffffffffffffffffffffffffffffffffffff1673ffffffffffffffffffffffffffffffffffffffff1673ffffffffffffffffffffffffffffffffffffffff16815260200160028201805461165590612903565b80601f016020809104026020016040519081016040528092919081815260200182805461168190612903565b80156116ce5780601f106116a3576101008083540402835291602001916116ce565b820191906000526020600020905b8154815290600101906020018083116116b157829003601f168201915b505050505081526020016003820154815250508383815181106116f4576116f36123dd565b5b6020026020010181905250818061170a9061288c565b9250505b80806117199061288c565b91505061157f565b50819350505050919050565b6000808290506000805b825181101561179c576030838281518110611755576117546123dd565b5b602001015160f81c60f81b60f81c60ff1661177091906126ef565b600a8361177d9190612c41565b6117879190612a32565b915080806117949061288c565b915050611737565b508092505050919050565b6002604051806060016040528084815260200183815260200142815250908060018154018082558091505060019003906000526020600020906003020160009091909190915060008201518160000155602082015181600101908051906020019061181392919061185f565b506040820151816002015550507f1ec822473a4282de60e49e395024087a5dd6d3d333ea2868c0981a1e426aec6e82824260405161185393929190611f47565b60405180910390a15050565b82805461186b90612903565b90600052602060002090601f01602090048101928261188d57600085556118d4565b82601f106118a657805160ff19168380011785556118d4565b828001600101855582156118d4579182015b828111156118d35782518255916020019190600101906118b8565b5b5090506118e191906119c2565b5090565b60405180606001604052806000815260200160608152602001600081525090565b604051806101200160405280600073ffffffffffffffffffffffffffffffffffffffff168152602001600073ffffffffffffffffffffffffffffffffffffffff168152602001600081526020016060815260200160008152602001600015158152602001600015158152602001600015158152602001600081525090565b604051806080016040528060008152602001600073ffffffffffffffffffffffffffffffffffffffff16815260200160608152602001600081525090565b5b808211156119db5760008160009055506001016119c3565b5090565b6000604051905090565b600080fd5b600080fd5b6000819050919050565b611a06816119f3565b8114611a1157600080fd5b50565b600081359050611a23816119fd565b92915050565b600080fd5b600080fd5b6000601f19601f8301169050919050565b7f4e487b7100000000000000000000000000000000000000000000000000000000600052604160045260246000fd5b611a7c82611a33565b810181811067ffffffffffffffff82111715611a9b57611a9a611a44565b5b80604052505050565b6000611aae6119df565b9050611aba8282611a73565b919050565b600067ffffffffffffffff821115611ada57611ad9611a44565b5b611ae382611a33565b9050602081019050919050565b82818337600083830152505050565b6000611b12611b0d84611abf565b611aa4565b905082815260208101848484011115611b2e57611b2d611a2e565b5b611b39848285611af0565b509392505050565b600082601f830112611b5657611b55611a29565b5b8135611b66848260208601611aff565b91505092915050565b600080600060608486031215611b8857611b876119e9565b5b6000611b9686828701611a14565b935050602084013567ffffffffffffffff811115611bb757611bb66119ee565b5b611bc386828701611b41565b9250506040611bd486828701611a14565b9150509250925092565b600073ffffffffffffffffffffffffffffffffffffffff82169050919050565b6000611c0982611bde565b9050919050565b611c1981611bfe565b8114611c2457600080fd5b50565b600081359050611c3681611c10565b92915050565b60008060008060808587031215611c5657611c556119e9565b5b6000611c6487828801611c27565b9450506020611c7587828801611a14565b935050604085013567ffffffffffffffff811115611c9657611c956119ee565b5b611ca287828801611b41565b925050606085013567ffffffffffffffff811115611cc357611cc26119ee565b5b611ccf87828801611b41565b91505092959194509250565b600060208284031215611cf157611cf06119e9565b5b6000611cff84828501611a14565b91505092915050565b600081519050919050565b600082825260208201905092915050565b6000819050602082019050919050565b611d3d816119f3565b82525050565b600081519050919050565b600082825260208201905092915050565b60005b83811015611d7d578082015181840152602081019050611d62565b83811115611d8c576000848401525b50505050565b6000611d9d82611d43565b611da78185611d4e565b9350611db7818560208601611d5f565b611dc081611a33565b840191505092915050565b6000606083016000830151611de36000860182611d34565b5060208301518482036020860152611dfb8282611d92565b9150506040830151611e106040860182611d34565b508091505092915050565b6000611e278383611dcb565b905092915050565b6000602082019050919050565b6000611e4782611d08565b611e518185611d13565b935083602082028501611e6385611d24565b8060005b85811015611e9f5784840389528151611e808582611e1b565b9450611e8b83611e2f565b925060208a01995050600181019050611e67565b50829750879550505050505092915050565b60006020820190508181036000830152611ecb8184611e3c565b905092915050565b611edc816119f3565b82525050565b6000602082019050611ef76000830184611ed3565b92915050565b600082825260208201905092915050565b6000611f1982611d43565b611f238185611efd565b9350611f33818560208601611d5f565b611f3c81611a33565b840191505092915050565b6000606082019050611f5c6000830186611ed3565b8181036020830152611f6e8185611f0e565b9050611f7d6040830184611ed3565b949350505050565b60008060408385031215611f9c57611f9b6119e9565b5b6000611faa85828601611a14565b9250506020611fbb85828601611a14565b9150509250929050565b600081519050919050565b600082825260208201905092915050565b6000819050602082019050919050565b611ffa81611bfe565b82525050565b60008115159050919050565b61201581612000565b82525050565b6000610120830160008301516120346000860182611ff1565b5060208301516120476020860182611ff1565b50604083015161205a6040860182611d34565b50606083015184820360608601526120728282611d92565b91505060808301516120876080860182611d34565b5060a083015161209a60a086018261200c565b5060c08301516120ad60c086018261200c565b5060e08301516120c060e086018261200c565b506101008301516120d5610100860182611d34565b508091505092915050565b60006120ec838361201b565b905092915050565b6000602082019050919050565b600061210c82611fc5565b6121168185611fd0565b93508360208202850161212885611fe1565b8060005b85811015612164578484038952815161214585826120e0565b9450612150836120f4565b925060208a0199505060018101905061212c565b50829750879550505050505092915050565b600060208201905081810360008301526121908184612101565b905092915050565b6121a181611bfe565b82525050565b6121b081612000565b82525050565b6000610120820190506121cc600083018c612198565b6121d9602083018b612198565b6121e6604083018a611ed3565b81810360608301526121f88189611f0e565b90506122076080830188611ed3565b61221460a08301876121a7565b61222160c08301866121a7565b61222e60e08301856121a7565b61223c610100830184611ed3565b9a9950505050505050505050565b600060808201905061225f6000830187611ed3565b61226c6020830186612198565b818103604083015261227e8185611f0e565b905061228d6060830184611ed3565b95945050505050565b600081519050919050565b600082825260208201905092915050565b6000819050602082019050919050565b60006080830160008301516122da6000860182611d34565b5060208301516122ed6020860182611ff1565b50604083015184820360408601526123058282611d92565b915050606083015161231a6060860182611d34565b508091505092915050565b600061233183836122c2565b905092915050565b6000602082019050919050565b600061235182612296565b61235b81856122a1565b93508360208202850161236d856122b2565b8060005b858110156123a9578484038952815161238a8582612325565b945061239583612339565b925060208a01995050600181019050612371565b50829750879550505050505092915050565b600060208201905081810360008301526123d58184612346565b905092915050565b7f4e487b7100000000000000000000000000000000000000000000000000000000600052603260045260246000fd5b7f4f6e6c792074686520726563697069656e742063616e2066696e616c697a652060008201527f616e206f72646572000000000000000000000000000000000000000000000000602082015250565b6000612468602883611efd565b91506124738261240c565b604082019050919050565b600060208201905081810360008301526124978161245b565b9050919050565b7f4f72646572206d7573742062652070616964206265666f726520636f6d706c6560008201527f74696f6e00000000000000000000000000000000000000000000000000000000602082015250565b60006124fa602483611efd565b91506125058261249e565b604082019050919050565b60006020820190508181036000830152612529816124ed565b9050919050565b7f546865206f726465722068617320616c7265616479206265656e20706c61636560008201527f6400000000000000000000000000000000000000000000000000000000000000602082015250565b600061258c602183611efd565b915061259782612530565b604082019050919050565b600060208201905081810360008301526125bb8161257f565b9050919050565b7f546865206f72646572207761732063616e63656c656400000000000000000000600082015250565b60006125f8601683611efd565b9150612603826125c2565b602082019050919050565b60006020820190508181036000830152612627816125eb565b9050919050565b7f53656e64657220616e6420726563697069656e742063616e6e6f74206265207460008201527f68652073616d6520706572736f6e000000000000000000000000000000000000602082015250565b600061268a602e83611efd565b91506126958261262e565b604082019050919050565b600060208201905081810360008301526126b98161267d565b9050919050565b7f4e487b7100000000000000000000000000000000000000000000000000000000600052601160045260246000fd5b60006126fa826119f3565b9150612705836119f3565b925082821015612718576127176126c0565b5b828203905092915050565b60006080820190506127386000830187611ed3565b6127456020830186612198565b6127526040830185612198565b61275f6060830184611ed3565b95945050505050565b7f4f6e6c79207468652073656e6465722063616e2063616e63656c20616e206f7260008201527f6465720000000000000000000000000000000000000000000000000000000000602082015250565b60006127c4602383611efd565b91506127cf82612768565b604082019050919050565b600060208201905081810360008301526127f3816127b7565b9050919050565b7f596f752063616e6e6f742063616e63656c206120636f6d706c65746564206f7260008201527f6465720000000000000000000000000000000000000000000000000000000000602082015250565b6000612856602383611efd565b9150612861826127fa565b604082019050919050565b6000602082019050818103600083015261288581612849565b9050919050565b6000612897826119f3565b91507fffffffffffffffffffffffffffffffffffffffffffffffffffffffffffffffff82036128c9576128c86126c0565b5b600182019050919050565b7f4e487b7100000000000000000000000000000000000000000000000000000000600052602260045260246000fd5b6000600282049050600182168061291b57607f821691505b60208210810361292e5761292d6128d4565b5b50919050565b7f456e6420696e646578206d7573742062652067726561746572207468616e206f60008201527f7220657175616c20746f20737461727420696e64657800000000000000000000602082015250565b6000612990603683611efd565b915061299b82612934565b604082019050919050565b600060208201905081810360008301526129bf81612983565b9050919050565b7f456e6420696e646578206f7574206f6620626f756e6473000000000000000000600082015250565b60006129fc601783611efd565b9150612a07826129c6565b602082019050919050565b60006020820190508181036000830152612a2b816129ef565b9050919050565b6000612a3d826119f3565b9150612a48836119f3565b9250827fffffffffffffffffffffffffffffffffffffffffffffffffffffffffffffffff03821115612a7d57612a7c6126c0565b5b828201905092915050565b7f4f6e6c79207468652073656e6465722063616e2070617920666f72207468652060008201527f6f72646572000000000000000000000000000000000000000000000000000000602082015250565b6000612ae4602583611efd565b9150612aef82612a88565b604082019050919050565b60006020820190508181036000830152612b1381612ad7565b9050919050565b7f4f7264657220697320616c726561647920706169640000000000000000000000600082015250565b6000612b50601583611efd565b9150612b5b82612b1a565b602082019050919050565b60006020820190508181036000830152612b7f81612b43565b9050919050565b7f53656e7420457468657220646f6573206e6f74206d617463682074686520707260008201527f696365206f6620746865206f7264657200000000000000000000000000000000602082015250565b6000612be2603083611efd565b9150612bed82612b86565b604082019050919050565b60006020820190508181036000830152612c1181612bd5565b9050919050565b6000604082019050612c2d6000830185611ed3565b612c3a6020830184611ed3565b9392505050565b6000612c4c826119f3565b9150612c57836119f3565b9250817fffffffffffffffffffffffffffffffffffffffffffffffffffffffffffffffff0483118215151615612c9057612c8f6126c0565b5b82820290509291505056fea26469706673582212200df726c464e4154d36071f562c82bb25d5d266652d29581550caaf2e1e92a11a64736f6c634300080d0033",
  "immutableReferences": {},
  "source": "// SPDX-License-Identifier: GPL-3.0\r\n\r\npragma solidity >=0.8.2 <0.9.0;\r\n\r\ncontract Logistics {\r\n\r\n//      \r\nstruct Order {\r\n    address sender; //  \r\n    address recipient; //  \r\n    uint distance; //      \r\n    string cargoType; //  \r\n    uint price; //  \r\n    bool isPaid; //   \r\n    bool isCompleted; // ,   ,   \r\n    bool isCancelled; // , ,   \r\n    uint escrow; //       \r\n}\r\n\r\n//       \r\nstruct OrderChange {\r\n    uint orderId; //  \r\n    string changeDescription; //  \r\n    uint timestamp; //  \r\n}\r\n\r\n//      \r\nstruct Review {\r\n    uint orderId; //  ,    \r\n    address reviewer; //  ,  \r\n    string comment; //  \r\n    uint rating; //     1  5\r\n}\r\n\r\n//     ,   \r\nOrder[] public orders;\r\nReview[] public reviews;\r\nOrderChange[] public orderChanges;\r\n\r\n//     \r\nevent OrderChanged(uint orderId, string changeDescription, uint timestamp);\r\nevent OrderAdded(uint orderId, address sender, address recipient, uint price);\r\nevent OrderPaid(uint orderId, uint amount);\r\n\r\n//      ( )\r\nfunction addOrder(address _recipient, uint _distance, string memory _cargoType, string memory _price) public {\r\n    require(_recipient != msg.sender, \"Sender and recipient cannot be the same person\");\r\n\r\n    //    uint  \r\n    uint price = parseUint(_price);\r\n\r\n    //      ( ,  )\r\n    orders.push(Order(msg.sender, _recipient, _distance, _cargoType, price, false, false, false, 0));\r\n    emit OrderAdded(orders.length - 1, msg.sender, _recipient, price);\r\n}\r\n\r\n//    \r\nfunction payForOrder(uint _orderId) public payable {\r\n    Order storage order = orders[_orderId];\r\n    require(msg.sender == order.sender, \"Only the sender can pay for the order\");\r\n    require(!order.isPaid, \"Order is already paid\");\r\n    require(msg.value == order.price, \"Sent Ether does not match the price of the order\");\r\n\r\n    //        \r\n    order.isPaid = true;\r\n    order.escrow = msg.value;\r\n\r\n    emit OrderPaid(_orderId, msg.value);\r\n}\r\n\r\n//       uint\r\nfunction parseUint(string memory _value) internal pure returns (uint) {\r\n    bytes memory bytesValue = bytes(_value);\r\n    uint result = 0;\r\n    for (uint i = 0; i < bytesValue.length; i++) {\r\n        result = result * 10 + (uint(uint8(bytesValue[i])) - 48);\r\n    }\r\n    return result;\r\n}\r\n\r\n//       \r\nfunction completeOrder(uint _orderId, string memory _comment, uint _rating) public {\r\n    Order storage order = orders[_orderId];\r\n    require(msg.sender == order.recipient, \"Only the recipient can finalize an order\");\r\n    require(order.isPaid, \"Order must be paid before completion\");\r\n    require(!order.isCompleted, \"The order has already been placed\");\r\n    require(!order.isCancelled, \"The order was canceled\");\r\n\r\n    order.isCompleted = true;\r\n    payable(order.sender).transfer(order.escrow); //    \r\n\r\n    //   \r\n    reviews.push(Review(_orderId, msg.sender, _comment, _rating));\r\n}\r\n\r\n//    \r\nfunction cancelOrder(uint _orderId) public {\r\n    Order storage order = orders[_orderId];\r\n    require(msg.sender == order.sender, \"Only the sender can cancel an order\");\r\n    require(!order.isCompleted, \"You cannot cancel a completed order\");\r\n\r\n    order.isCancelled = true;\r\n\r\n    //      ,    \r\n    if (order.isPaid) {\r\n        payable(order.sender).transfer(order.escrow);\r\n    }\r\n\r\n    //     \r\n    addOrderChange(_orderId, \"The order was canceled\");\r\n}\r\n\r\n//     \r\nfunction addOrderChange(uint _orderId, string memory _changeDescription) internal {\r\n    orderChanges.push(OrderChange(_orderId, _changeDescription, block.timestamp));\r\n    emit OrderChanged(_orderId, _changeDescription, block.timestamp);\r\n}\r\n\r\n//     \r\nfunction getOrderChanges(uint _orderId) public view returns (OrderChange[] memory) {\r\n    uint changeCount = 0;\r\n\r\n    //      \r\n    for (uint i = 0; i < orderChanges.length; i++) {\r\n        if (orderChanges[i].orderId == _orderId) {\r\n            changeCount++;\r\n        }\r\n    }\r\n\r\n    //     \r\n    OrderChange[] memory changes = new OrderChange[](changeCount);\r\n    uint index = 0;\r\n\r\n    for (uint i = 0; i < orderChanges.length; i++) {\r\n        if (orderChanges[i].orderId == _orderId) {\r\n            changes[index] = orderChanges[i];\r\n            index++;\r\n        }\r\n    }\r\n\r\n    return changes;\r\n}\r\n\r\n//       \r\nfunction getOrderCount() public view returns (uint) {\r\n    return orders.length;\r\n}\r\n\r\n//       \r\nfunction getReviewCount() public view returns (uint) {\r\n    return reviews.length;\r\n}\r\n\r\n//       \r\nfunction getReviewsByOrder(uint _orderId) public view returns (Review[] memory) {\r\n    uint reviewCount = 0;\r\n\r\n    //      \r\n    for (uint i = 0; i < reviews.length; i++) {\r\n        if (reviews[i].orderId == _orderId) {\r\n            reviewCount++;\r\n        }\r\n    }\r\n\r\n    //      \r\n    Review[] memory orderReviews = new Review[](reviewCount);\r\n    uint index = 0;\r\n\r\n    for (uint i = 0; i < reviews.length; i++) {\r\n        if (reviews[i].orderId == _orderId) {\r\n            orderReviews[index] = reviews[i];\r\n            index++;\r\n        }\r\n    }\r\n\r\n    return orderReviews;\r\n}\r\n\r\n//      \r\nfunction getOrders(uint startIndex, uint endIndex) public view returns (Order[] memory) {\r\n    require(endIndex >= startIndex, \"End index must be greater than or equal to start index\");\r\n    require(endIndex < orders.length, \"End index out of bounds\");\r\n\r\n    uint length = endIndex - startIndex + 1;\r\n    Order[] memory orderList = new Order[](length);\r\n\r\n    for (uint i = 0; i < length; i++) {\r\n        orderList[i] = orders[startIndex + i];\r\n    }\r\n\r\n    return orderList;\r\n}\r\n\r\n}\r\n",
  "sourcePath": "D:\\\\blockchain_kr\\contracts\\Logistics.sol",
  "compiler": {
    "name": "solc",
    "version": "0.8.13+commit.abaa5c0e.Emscripten.clang"
  },
  "schemaVersion": "3.4.16",
  "updatedAt": "2024-09-12T17:02:50.098Z",
  "networkType": "ethereum",
  "devdoc": {
    "kind": "dev",
    "methods": {},
    "version": 1
  },
  "userdoc": {
    "kind": "user",
    "methods": {},
    "version": 1
  }
}