{
  "contractName": "Logistics",
  "abi": [
    {
      "inputs": [],
      "stateMutability": "nonpayable",
      "type": "constructor"
    },
    {
      "anonymous": false,
      "inputs": [
        {
          "indexed": false,
          "internalType": "uint256",
          "name": "orderId",
          "type": "uint256"
        },
        {
          "indexed": false,
          "internalType": "address",
          "name": "sender",
          "type": "address"
        },
        {
          "indexed": false,
          "internalType": "address",
          "name": "recipient",
          "type": "address"
        },
        {
          "indexed": false,
          "internalType": "uint256",
          "name": "price",
          "type": "uint256"
        }
      ],
      "name": "OrderAdded",
      "type": "event"
    },
    {
      "anonymous": false,
      "inputs": [
        {
          "indexed": false,
          "internalType": "uint256",
          "name": "orderId",
          "type": "uint256"
        }
      ],
      "name": "OrderCancelled",
      "type": "event"
    },
    {
      "anonymous": false,
      "inputs": [
        {
          "indexed": false,
          "internalType": "uint256",
          "name": "orderId",
          "type": "uint256"
        }
      ],
      "name": "OrderCompleted",
      "type": "event"
    },
    {
      "anonymous": false,
      "inputs": [
        {
          "indexed": false,
          "internalType": "uint256",
          "name": "orderId",
          "type": "uint256"
        },
        {
          "indexed": false,
          "internalType": "uint256",
          "name": "amount",
          "type": "uint256"
        }
      ],
      "name": "OrderPaid",
      "type": "event"
    },
    {
      "anonymous": false,
      "inputs": [
        {
          "indexed": false,
          "internalType": "uint256",
          "name": "orderId",
          "type": "uint256"
        },
        {
          "indexed": false,
          "internalType": "address",
          "name": "reviewer",
          "type": "address"
        },
        {
          "indexed": false,
          "internalType": "uint256",
          "name": "rating",
          "type": "uint256"
        }
      ],
      "name": "ReviewAdded",
      "type": "event"
    },
    {
      "inputs": [],
      "name": "companyAddress",
      "outputs": [
        {
          "internalType": "address",
          "name": "",
          "type": "address"
        }
      ],
      "stateMutability": "view",
      "type": "function",
      "constant": true
    },
    {
      "inputs": [
        {
          "internalType": "uint256",
          "name": "",
          "type": "uint256"
        }
      ],
      "name": "orders",
      "outputs": [
        {
          "internalType": "address",
          "name": "sender",
          "type": "address"
        },
        {
          "internalType": "address",
          "name": "recipient",
          "type": "address"
        },
        {
          "internalType": "uint256",
          "name": "distance",
          "type": "uint256"
        },
        {
          "internalType": "string",
          "name": "cargoType",
          "type": "string"
        },
        {
          "internalType": "uint256",
          "name": "price",
          "type": "uint256"
        },
        {
          "internalType": "bool",
          "name": "isPaid",
          "type": "bool"
        },
        {
          "internalType": "bool",
          "name": "isCompleted",
          "type": "bool"
        },
        {
          "internalType": "bool",
          "name": "isCancelled",
          "type": "bool"
        }
      ],
      "stateMutability": "view",
      "type": "function",
      "constant": true
    },
    {
      "inputs": [
        {
          "internalType": "uint256",
          "name": "",
          "type": "uint256"
        }
      ],
      "name": "reviews",
      "outputs": [
        {
          "internalType": "uint256",
          "name": "orderId",
          "type": "uint256"
        },
        {
          "internalType": "address",
          "name": "reviewer",
          "type": "address"
        },
        {
          "internalType": "string",
          "name": "comment",
          "type": "string"
        },
        {
          "internalType": "uint256",
          "name": "rating",
          "type": "uint256"
        }
      ],
      "stateMutability": "view",
      "type": "function",
      "constant": true
    },
    {
      "inputs": [
        {
          "internalType": "address",
          "name": "_recipient",
          "type": "address"
        },
        {
          "internalType": "uint256",
          "name": "_distance",
          "type": "uint256"
        },
        {
          "internalType": "string",
          "name": "_cargoType",
          "type": "string"
        },
        {
          "internalType": "uint256",
          "name": "_price",
          "type": "uint256"
        }
      ],
      "name": "addOrder",
      "outputs": [],
      "stateMutability": "nonpayable",
      "type": "function"
    },
    {
      "inputs": [
        {
          "internalType": "uint256",
          "name": "_orderId",
          "type": "uint256"
        }
      ],
      "name": "payForOrder",
      "outputs": [],
      "stateMutability": "payable",
      "type": "function",
      "payable": true
    },
    {
      "inputs": [
        {
          "internalType": "uint256",
          "name": "_orderId",
          "type": "uint256"
        },
        {
          "internalType": "string",
          "name": "_comment",
          "type": "string"
        },
        {
          "internalType": "uint256",
          "name": "_rating",
          "type": "uint256"
        }
      ],
      "name": "completeOrder",
      "outputs": [],
      "stateMutability": "nonpayable",
      "type": "function"
    },
    {
      "inputs": [
        {
          "internalType": "uint256",
          "name": "_orderId",
          "type": "uint256"
        }
      ],
      "name": "cancelOrder",
      "outputs": [],
      "stateMutability": "nonpayable",
      "type": "function"
    },
    {
      "inputs": [],
      "name": "getOrderCount",
      "outputs": [
        {
          "internalType": "uint256",
          "name": "",
          "type": "uint256"
        }
      ],
      "stateMutability": "view",
      "type": "function",
      "constant": true
    },
    {
      "inputs": [],
      "name": "getReviewCount",
      "outputs": [
        {
          "internalType": "uint256",
          "name": "",
          "type": "uint256"
        }
      ],
      "stateMutability": "view",
      "type": "function",
      "constant": true
    },
    {
      "inputs": [
        {
          "internalType": "uint256",
          "name": "_orderId",
          "type": "uint256"
        }
      ],
      "name": "getOrder",
      "outputs": [
        {
          "internalType": "address",
          "name": "sender",
          "type": "address"
        },
        {
          "internalType": "address",
          "name": "recipient",
          "type": "address"
        },
        {
          "internalType": "uint256",
          "name": "distance",
          "type": "uint256"
        },
        {
          "internalType": "string",
          "name": "cargoType",
          "type": "string"
        },
        {
          "internalType": "uint256",
          "name": "price",
          "type": "uint256"
        },
        {
          "internalType": "bool",
          "name": "isPaid",
          "type": "bool"
        },
        {
          "internalType": "bool",
          "name": "isCompleted",
          "type": "bool"
        },
        {
          "internalType": "bool",
          "name": "isCancelled",
          "type": "bool"
        }
      ],
      "stateMutability": "view",
      "type": "function",
      "constant": true
    },
    {
      "inputs": [],
      "name": "withdrawCompanyFunds",
      "outputs": [],
      "stateMutability": "nonpayable",
      "type": "function"
    },
    {
      "inputs": [
        {
          "internalType": "uint256",
          "name": "_orderId",
          "type": "uint256"
        }
      ],
      "name": "getReviewsByOrder",
      "outputs": [
        {
          "components": [
            {
              "internalType": "uint256",
              "name": "orderId",
              "type": "uint256"
            },
            {
              "internalType": "address",
              "name": "reviewer",
              "type": "address"
            },
            {
              "internalType": "string",
              "name": "comment",
              "type": "string"
            },
            {
              "internalType": "uint256",
              "name": "rating",
              "type": "uint256"
            }
          ],
          "internalType": "struct Logistics.Review[]",
          "name": "",
          "type": "tuple[]"
        }
      ],
      "stateMutability": "view",
      "type": "function",
      "constant": true
    },
    {
      "inputs": [],
      "name": "getAverageRating",
      "outputs": [
        {
          "internalType": "uint256",
          "name": "",
          "type": "uint256"
        }
      ],
      "stateMutability": "view",
      "type": "function",
      "constant": true
    },
    {
      "inputs": [
        {
          "internalType": "address",
          "name": "_sender",
          "type": "address"
        }
      ],
      "name": "getOrdersBySender",
      "outputs": [
        {
          "components": [
            {
              "internalType": "address",
              "name": "sender",
              "type": "address"
            },
            {
              "internalType": "address",
              "name": "recipient",
              "type": "address"
            },
            {
              "internalType": "uint256",
              "name": "distance",
              "type": "uint256"
            },
            {
              "internalType": "string",
              "name": "cargoType",
              "type": "string"
            },
            {
              "internalType": "uint256",
              "name": "price",
              "type": "uint256"
            },
            {
              "internalType": "bool",
              "name": "isPaid",
              "type": "bool"
            },
            {
              "internalType": "bool",
              "name": "isCompleted",
              "type": "bool"
            },
            {
              "internalType": "bool",
              "name": "isCancelled",
              "type": "bool"
            }
          ],
          "internalType": "struct Logistics.Order[]",
          "name": "",
          "type": "tuple[]"
        }
      ],
      "stateMutability": "view",
      "type": "function",
      "constant": true
    }
  ],
  "bytecode": "0x608060405234801561001057600080fd5b5033600260006101000a81548173ffffffffffffffffffffffffffffffffffffffff021916908373ffffffffffffffffffffffffffffffffffffffff160217905550612ea1806100616000396000f3fe6080604052600436106100dd5760003560e01c80638d0a5fbb1161007f578063d09ef24111610059578063d09ef241146102a1578063d9c2dcee146102e5578063e83ddcea14610301578063fe95d76514610341576100dd565b80638d0a5fbb1461021b578063a85c38ef14610246578063b5b560981461028a576100dd565b806353e1ead9116100bb57806353e1ead914610171578063709dc7fb1461019c57806370f6e4cf146101c75780637b55e084146101f2576100dd565b8063039a1c73146100e2578063042317371461010b578063514fcac714610148575b600080fd5b3480156100ee57600080fd5b5061010960048036038101906101049190611d48565b61037e565b005b34801561011757600080fd5b50610132600480360381019061012d9190611e15565b61070f565b60405161013f9190612075565b60405180910390f35b34801561015457600080fd5b5061016f600480360381019061016a9190612097565b610abb565b005b34801561017d57600080fd5b50610186610da1565b60405161019391906120d3565b60405180910390f35b3480156101a857600080fd5b506101b1610dc7565b6040516101be91906120fd565b60405180910390f35b3480156101d357600080fd5b506101dc610dd4565b6040516101e991906120fd565b60405180910390f35b3480156101fe57600080fd5b5061021960048036038101906102149190612118565b610e5e565b005b34801561022757600080fd5b506102306110db565b60405161023d91906120fd565b60405180910390f35b34801561025257600080fd5b5061026d60048036038101906102689190612097565b6110e7565b6040516102819897969594939291906121f4565b60405180910390f35b34801561029657600080fd5b5061029f61122e565b005b3480156102ad57600080fd5b506102c860048036038101906102c39190612097565b6113d8565b6040516102dc9897969594939291906121f4565b60405180910390f35b6102ff60048036038101906102fa9190612097565b611540565b005b34801561030d57600080fd5b5061032860048036038101906103239190612097565b61170c565b6040516103389493929190612279565b60405180910390f35b34801561034d57600080fd5b5061036860048036038101906103639190612097565b6117f4565b60405161037591906123ea565b60405180910390f35b82600081815481106103935761039261240c565b5b906000526020600020906006020160010160009054906101000a900473ffffffffffffffffffffffffffffffffffffffff1673ffffffffffffffffffffffffffffffffffffffff163373ffffffffffffffffffffffffffffffffffffffff1614610432576040517f08c379a0000000000000000000000000000000000000000000000000000000008152600401610429906124ad565b60405180910390fd5b60008085815481106104475761044661240c565b5b906000526020600020906006020190508060050160009054906101000a900460ff166104a8576040517f08c379a000000000000000000000000000000000000000000000000000000000815260040161049f9061253f565b60405180910390fd5b8060050160019054906101000a900460ff16156104fa576040517f08c379a00000000000000000000000000000000000000000000000000000000081526004016104f1906125d1565b60405180910390fd5b8060050160029054906101000a900460ff161561054c576040517f08c379a00000000000000000000000000000000000000000000000000000000081526004016105439061263d565b60405180910390fd5b6001831015801561055e575060058311155b61059d576040517f08c379a0000000000000000000000000000000000000000000000000000000008152600401610594906126a9565b60405180910390fd5b60018160050160016101000a81548160ff021916908315150217905550600160405180608001604052808781526020013373ffffffffffffffffffffffffffffffffffffffff1681526020018681526020018581525090806001815401808255809150506001900390600052602060002090600402016000909190919091506000820151816000015560208201518160010160006101000a81548173ffffffffffffffffffffffffffffffffffffffff021916908373ffffffffffffffffffffffffffffffffffffffff1602179055506040820151816002019080519060200190610689929190611a60565b506060820151816003015550507f2b9c3d5cf21860ed898980596d65b176ebaa1765f7f9a288a51aad4672ba1e758533856040516106c9939291906126c9565b60405180910390a17f02a7d4d9472af7118644884b9a0ee443540c0027e938dd0aa35be8ecbe946c0a8560405161070091906120fd565b60405180910390a15050505050565b60606000805b6000805490508110156107bc578373ffffffffffffffffffffffffffffffffffffffff166000828154811061074d5761074c61240c565b5b906000526020600020906006020160000160009054906101000a900473ffffffffffffffffffffffffffffffffffffffff1673ffffffffffffffffffffffffffffffffffffffff16036107a95781806107a59061272f565b9250505b80806107b49061272f565b915050610715565b5060008167ffffffffffffffff8111156107d9576107d8611c1d565b5b60405190808252806020026020018201604052801561081257816020015b6107ff611ae6565b8152602001906001900390816107f75790505b5090506000805b600080549050811015610aaf578573ffffffffffffffffffffffffffffffffffffffff16600082815481106108515761085061240c565b5b906000526020600020906006020160000160009054906101000a900473ffffffffffffffffffffffffffffffffffffffff1673ffffffffffffffffffffffffffffffffffffffff1603610a9c57600081815481106108b2576108b161240c565b5b9060005260206000209060060201604051806101000160405290816000820160009054906101000a900473ffffffffffffffffffffffffffffffffffffffff1673ffffffffffffffffffffffffffffffffffffffff1673ffffffffffffffffffffffffffffffffffffffff1681526020016001820160009054906101000a900473ffffffffffffffffffffffffffffffffffffffff1673ffffffffffffffffffffffffffffffffffffffff1673ffffffffffffffffffffffffffffffffffffffff16815260200160028201548152602001600382018054610992906127a6565b80601f01602080910402602001604051908101604052809291908181526020018280546109be906127a6565b8015610a0b5780601f106109e057610100808354040283529160200191610a0b565b820191906000526020600020905b8154815290600101906020018083116109ee57829003601f168201915b50505050508152602001600482015481526020016005820160009054906101000a900460ff161515151581526020016005820160019054906101000a900460ff161515151581526020016005820160029054906101000a900460ff161515151581525050838381518110610a8257610a8161240c565b5b60200260200101819052508180610a989061272f565b9250505b8080610aa79061272f565b915050610819565b50819350505050919050565b8060008181548110610ad057610acf61240c565b5b906000526020600020906006020160000160009054906101000a900473ffffffffffffffffffffffffffffffffffffffff1673ffffffffffffffffffffffffffffffffffffffff163373ffffffffffffffffffffffffffffffffffffffff1614610b6f576040517f08c379a0000000000000000000000000000000000000000000000000000000008152600401610b6690612849565b60405180910390fd5b6000808381548110610b8457610b8361240c565b5b906000526020600020906006020190508060050160019054906101000a900460ff1615610be6576040517f08c379a0000000000000000000000000000000000000000000000000000000008152600401610bdd906128db565b60405180910390fd5b8060050160029054906101000a900460ff1615610c38576040517f08c379a0000000000000000000000000000000000000000000000000000000008152600401610c2f90612947565b60405180910390fd5b60018160050160026101000a81548160ff0219169083151502179055508060050160009054906101000a900460ff1615610d655760008160040154905060008260050160006101000a81548160ff02191690831515021790555060008260000160009054906101000a900473ffffffffffffffffffffffffffffffffffffffff1673ffffffffffffffffffffffffffffffffffffffff1682604051610cdc90612998565b60006040518083038185875af1925050503d8060008114610d19576040519150601f19603f3d011682016040523d82523d6000602084013e610d1e565b606091505b5050905080610d62576040517f08c379a0000000000000000000000000000000000000000000000000000000008152600401610d59906129f9565b60405180910390fd5b50505b7f61b9399f2f0f32ca39ce8d7be32caed5ec22fe07a6daba3a467ed479ec60658283604051610d9491906120fd565b60405180910390a1505050565b600260009054906101000a900473ffffffffffffffffffffffffffffffffffffffff1681565b6000600180549050905090565b600080600090506000600180549050905060008103610df857600092505050610e5b565b60005b81811015610e495760018181548110610e1757610e1661240c565b5b90600052602060002090600402016003015483610e349190612a19565b92508080610e419061272f565b915050610dfb565b508082610e569190612a9e565b925050505b90565b3373ffffffffffffffffffffffffffffffffffffffff168473ffffffffffffffffffffffffffffffffffffffff1603610ecc576040517f08c379a0000000000000000000000000000000000000000000000000000000008152600401610ec390612b41565b60405180910390fd5b60006040518061010001604052803373ffffffffffffffffffffffffffffffffffffffff1681526020018673ffffffffffffffffffffffffffffffffffffffff16815260200185815260200184815260200183815260200160001515815260200160001515815260200160001515815250908060018154018082558091505060019003906000526020600020906006020160009091909190915060008201518160000160006101000a81548173ffffffffffffffffffffffffffffffffffffffff021916908373ffffffffffffffffffffffffffffffffffffffff16021790555060208201518160010160006101000a81548173ffffffffffffffffffffffffffffffffffffffff021916908373ffffffffffffffffffffffffffffffffffffffff16021790555060408201518160020155606082015181600301908051906020019061101a929190611a60565b506080820151816004015560a08201518160050160006101000a81548160ff02191690831515021790555060c08201518160050160016101000a81548160ff02191690831515021790555060e08201518160050160026101000a81548160ff02191690831515021790555050507fb86b42a1c9549d8c493944734280cd2a3b9fd72ab4aaf0ea4eb4d34d3cc3ecca60016000805490506110ba9190612b61565b3386846040516110cd9493929190612b95565b60405180910390a150505050565b60008080549050905090565b600081815481106110f757600080fd5b90600052602060002090600602016000915090508060000160009054906101000a900473ffffffffffffffffffffffffffffffffffffffff16908060010160009054906101000a900473ffffffffffffffffffffffffffffffffffffffff169080600201549080600301805461116c906127a6565b80601f0160208091040260200160405190810160405280929190818152602001828054611198906127a6565b80156111e55780601f106111ba576101008083540402835291602001916111e5565b820191906000526020600020905b8154815290600101906020018083116111c857829003601f168201915b5050505050908060040154908060050160009054906101000a900460ff16908060050160019054906101000a900460ff16908060050160029054906101000a900460ff16905088565b600260009054906101000a900473ffffffffffffffffffffffffffffffffffffffff1673ffffffffffffffffffffffffffffffffffffffff163373ffffffffffffffffffffffffffffffffffffffff16146112be576040517f08c379a00000000000000000000000000000000000000000000000000000000081526004016112b590612c4c565b60405180910390fd5b600047905060008111611306576040517f08c379a00000000000000000000000000000000000000000000000000000000081526004016112fd90612cb8565b60405180910390fd5b6000600260009054906101000a900473ffffffffffffffffffffffffffffffffffffffff1673ffffffffffffffffffffffffffffffffffffffff168260405161134e90612998565b60006040518083038185875af1925050503d806000811461138b576040519150601f19603f3d011682016040523d82523d6000602084013e611390565b606091505b50509050806113d4576040517f08c379a00000000000000000000000000000000000000000000000000000000081526004016113cb90612d24565b60405180910390fd5b5050565b600080600060606000806000806000808a815481106113fa576113f961240c565b5b906000526020600020906006020190508060000160009054906101000a900473ffffffffffffffffffffffffffffffffffffffff168160010160009054906101000a900473ffffffffffffffffffffffffffffffffffffffff1682600201548360030184600401548560050160009054906101000a900460ff168660050160019054906101000a900460ff168760050160029054906101000a900460ff168480546114a4906127a6565b80601f01602080910402602001604051908101604052809291908181526020018280546114d0906127a6565b801561151d5780601f106114f25761010080835404028352916020019161151d565b820191906000526020600020905b81548152906001019060200180831161150057829003601f168201915b505050505094509850985098509850985098509850985050919395975091939597565b80600081815481106115555761155461240c565b5b906000526020600020906006020160000160009054906101000a900473ffffffffffffffffffffffffffffffffffffffff1673ffffffffffffffffffffffffffffffffffffffff163373ffffffffffffffffffffffffffffffffffffffff16146115f4576040517f08c379a00000000000000000000000000000000000000000000000000000000081526004016115eb90612849565b60405180910390fd5b60008083815481106116095761160861240c565b5b906000526020600020906006020190508060050160009054906101000a900460ff161561166b576040517f08c379a000000000000000000000000000000000000000000000000000000000815260040161166290612d90565b60405180910390fd5b806004015434146116b1576040517f08c379a00000000000000000000000000000000000000000000000000000000081526004016116a890612e22565b60405180910390fd5b60018160050160006101000a81548160ff0219169083151502179055507f7c32ca00142334d942c919d338fa31921d5108c316aebd0347bcda69ee8167c983346040516116ff929190612e42565b60405180910390a1505050565b6001818154811061171c57600080fd5b90600052602060002090600402016000915090508060000154908060010160009054906101000a900473ffffffffffffffffffffffffffffffffffffffff169080600201805461176b906127a6565b80601f0160208091040260200160405190810160405280929190818152602001828054611797906127a6565b80156117e45780601f106117b9576101008083540402835291602001916117e4565b820191906000526020600020905b8154815290600101906020018083116117c757829003601f168201915b5050505050908060030154905084565b60606000805b60018054905081101561185557836001828154811061181c5761181b61240c565b5b9060005260206000209060040201600001540361184257818061183e9061272f565b9250505b808061184d9061272f565b9150506117fa565b5060008167ffffffffffffffff81111561187257611871611c1d565b5b6040519080825280602002602001820160405280156118ab57816020015b611898611b5d565b8152602001906001900390816118905790505b5090506000805b600180549050811015611a545785600182815481106118d4576118d361240c565b5b90600052602060002090600402016000015403611a4157600181815481106118ff576118fe61240c565b5b9060005260206000209060040201604051806080016040529081600082015481526020016001820160009054906101000a900473ffffffffffffffffffffffffffffffffffffffff1673ffffffffffffffffffffffffffffffffffffffff1673ffffffffffffffffffffffffffffffffffffffff168152602001600282018054611988906127a6565b80601f01602080910402602001604051908101604052809291908181526020018280546119b4906127a6565b8015611a015780601f106119d657610100808354040283529160200191611a01565b820191906000526020600020905b8154815290600101906020018083116119e457829003601f168201915b50505050508152602001600382015481525050838381518110611a2757611a2661240c565b5b60200260200101819052508180611a3d9061272f565b9250505b8080611a4c9061272f565b9150506118b2565b50819350505050919050565b828054611a6c906127a6565b90600052602060002090601f016020900481019282611a8e5760008555611ad5565b82601f10611aa757805160ff1916838001178555611ad5565b82800160010185558215611ad5579182015b82811115611ad4578251825591602001919060010190611ab9565b5b509050611ae29190611b9b565b5090565b604051806101000160405280600073ffffffffffffffffffffffffffffffffffffffff168152602001600073ffffffffffffffffffffffffffffffffffffffff1681526020016000815260200160608152602001600081526020016000151581526020016000151581526020016000151581525090565b604051806080016040528060008152602001600073ffffffffffffffffffffffffffffffffffffffff16815260200160608152602001600081525090565b5b80821115611bb4576000816000905550600101611b9c565b5090565b6000604051905090565b600080fd5b600080fd5b6000819050919050565b611bdf81611bcc565b8114611bea57600080fd5b50565b600081359050611bfc81611bd6565b92915050565b600080fd5b600080fd5b6000601f19601f8301169050919050565b7f4e487b7100000000000000000000000000000000000000000000000000000000600052604160045260246000fd5b611c5582611c0c565b810181811067ffffffffffffffff82111715611c7457611c73611c1d565b5b80604052505050565b6000611c87611bb8565b9050611c938282611c4c565b919050565b600067ffffffffffffffff821115611cb357611cb2611c1d565b5b611cbc82611c0c565b9050602081019050919050565b82818337600083830152505050565b6000611ceb611ce684611c98565b611c7d565b905082815260208101848484011115611d0757611d06611c07565b5b611d12848285611cc9565b509392505050565b600082601f830112611d2f57611d2e611c02565b5b8135611d3f848260208601611cd8565b91505092915050565b600080600060608486031215611d6157611d60611bc2565b5b6000611d6f86828701611bed565b935050602084013567ffffffffffffffff811115611d9057611d8f611bc7565b5b611d9c86828701611d1a565b9250506040611dad86828701611bed565b9150509250925092565b600073ffffffffffffffffffffffffffffffffffffffff82169050919050565b6000611de282611db7565b9050919050565b611df281611dd7565b8114611dfd57600080fd5b50565b600081359050611e0f81611de9565b92915050565b600060208284031215611e2b57611e2a611bc2565b5b6000611e3984828501611e00565b91505092915050565b600081519050919050565b600082825260208201905092915050565b6000819050602082019050919050565b611e7781611dd7565b82525050565b611e8681611bcc565b82525050565b600081519050919050565b600082825260208201905092915050565b60005b83811015611ec6578082015181840152602081019050611eab565b83811115611ed5576000848401525b50505050565b6000611ee682611e8c565b611ef08185611e97565b9350611f00818560208601611ea8565b611f0981611c0c565b840191505092915050565b60008115159050919050565b611f2981611f14565b82525050565b600061010083016000830151611f486000860182611e6e565b506020830151611f5b6020860182611e6e565b506040830151611f6e6040860182611e7d565b5060608301518482036060860152611f868282611edb565b9150506080830151611f9b6080860182611e7d565b5060a0830151611fae60a0860182611f20565b5060c0830151611fc160c0860182611f20565b5060e0830151611fd460e0860182611f20565b508091505092915050565b6000611feb8383611f2f565b905092915050565b6000602082019050919050565b600061200b82611e42565b6120158185611e4d565b93508360208202850161202785611e5e565b8060005b8581101561206357848403895281516120448582611fdf565b945061204f83611ff3565b925060208a0199505060018101905061202b565b50829750879550505050505092915050565b6000602082019050818103600083015261208f8184612000565b905092915050565b6000602082840312156120ad576120ac611bc2565b5b60006120bb84828501611bed565b91505092915050565b6120cd81611dd7565b82525050565b60006020820190506120e860008301846120c4565b92915050565b6120f781611bcc565b82525050565b600060208201905061211260008301846120ee565b92915050565b6000806000806080858703121561213257612131611bc2565b5b600061214087828801611e00565b945050602061215187828801611bed565b935050604085013567ffffffffffffffff81111561217257612171611bc7565b5b61217e87828801611d1a565b925050606061218f87828801611bed565b91505092959194509250565b600082825260208201905092915050565b60006121b782611e8c565b6121c1818561219b565b93506121d1818560208601611ea8565b6121da81611c0c565b840191505092915050565b6121ee81611f14565b82525050565b60006101008201905061220a600083018b6120c4565b612217602083018a6120c4565b61222460408301896120ee565b818103606083015261223681886121ac565b905061224560808301876120ee565b61225260a08301866121e5565b61225f60c08301856121e5565b61226c60e08301846121e5565b9998505050505050505050565b600060808201905061228e60008301876120ee565b61229b60208301866120c4565b81810360408301526122ad81856121ac565b90506122bc60608301846120ee565b95945050505050565b600081519050919050565b600082825260208201905092915050565b6000819050602082019050919050565b60006080830160008301516123096000860182611e7d565b50602083015161231c6020860182611e6e565b50604083015184820360408601526123348282611edb565b91505060608301516123496060860182611e7d565b508091505092915050565b600061236083836122f1565b905092915050565b6000602082019050919050565b6000612380826122c5565b61238a81856122d0565b93508360208202850161239c856122e1565b8060005b858110156123d857848403895281516123b98582612354565b94506123c483612368565b925060208a019950506001810190506123a0565b50829750879550505050505092915050565b600060208201905081810360008301526124048184612375565b905092915050565b7f4e487b7100000000000000000000000000000000000000000000000000000000600052603260045260246000fd5b7f4f6e6c792074686520726563697069656e742063616e20706572666f726d207460008201527f68697320616374696f6e00000000000000000000000000000000000000000000602082015250565b6000612497602a8361219b565b91506124a28261243b565b604082019050919050565b600060208201905081810360008301526124c68161248a565b9050919050565b7f4f72646572206d7573742062652070616964206265666f726520636f6d706c6560008201527f74696f6e00000000000000000000000000000000000000000000000000000000602082015250565b600061252960248361219b565b9150612534826124cd565b604082019050919050565b600060208201905081810360008301526125588161251c565b9050919050565b7f546865206f726465722068617320616c7265616479206265656e20636f6d706c60008201527f6574656400000000000000000000000000000000000000000000000000000000602082015250565b60006125bb60248361219b565b91506125c68261255f565b604082019050919050565b600060208201905081810360008301526125ea816125ae565b9050919050565b7f546865206f72646572207761732063616e63656c656400000000000000000000600082015250565b600061262760168361219b565b9150612632826125f1565b602082019050919050565b600060208201905081810360008301526126568161261a565b9050919050565b7f526174696e67206d757374206265206265747765656e203120616e6420350000600082015250565b6000612693601e8361219b565b915061269e8261265d565b602082019050919050565b600060208201905081810360008301526126c281612686565b9050919050565b60006060820190506126de60008301866120ee565b6126eb60208301856120c4565b6126f860408301846120ee565b949350505050565b7f4e487b7100000000000000000000000000000000000000000000000000000000600052601160045260246000fd5b600061273a82611bcc565b91507fffffffffffffffffffffffffffffffffffffffffffffffffffffffffffffffff820361276c5761276b612700565b5b600182019050919050565b7f4e487b7100000000000000000000000000000000000000000000000000000000600052602260045260246000fd5b600060028204905060018216806127be57607f821691505b6020821081036127d1576127d0612777565b5b50919050565b7f4f6e6c79207468652073656e6465722063616e20706572666f726d207468697360008201527f20616374696f6e00000000000000000000000000000000000000000000000000602082015250565b600061283360278361219b565b915061283e826127d7565b604082019050919050565b6000602082019050818103600083015261286281612826565b9050919050565b7f596f752063616e6e6f742063616e63656c206120636f6d706c65746564206f7260008201527f6465720000000000000000000000000000000000000000000000000000000000602082015250565b60006128c560238361219b565b91506128d082612869565b604082019050919050565b600060208201905081810360008301526128f4816128b8565b9050919050565b7f4f7264657220697320616c72656164792063616e63656c6c6564000000000000600082015250565b6000612931601a8361219b565b915061293c826128fb565b602082019050919050565b6000602082019050818103600083015261296081612924565b9050919050565b600081905092915050565b50565b6000612982600083612967565b915061298d82612972565b600082019050919050565b60006129a382612975565b9150819050919050565b7f526566756e64206661696c65642e000000000000000000000000000000000000600082015250565b60006129e3600e8361219b565b91506129ee826129ad565b602082019050919050565b60006020820190508181036000830152612a12816129d6565b9050919050565b6000612a2482611bcc565b9150612a2f83611bcc565b9250827fffffffffffffffffffffffffffffffffffffffffffffffffffffffffffffffff03821115612a6457612a63612700565b5b828201905092915050565b7f4e487b7100000000000000000000000000000000000000000000000000000000600052601260045260246000fd5b6000612aa982611bcc565b9150612ab483611bcc565b925082612ac457612ac3612a6f565b5b828204905092915050565b7f53656e64657220616e6420726563697069656e742063616e6e6f74206265207460008201527f68652073616d6520706572736f6e000000000000000000000000000000000000602082015250565b6000612b2b602e8361219b565b9150612b3682612acf565b604082019050919050565b60006020820190508181036000830152612b5a81612b1e565b9050919050565b6000612b6c82611bcc565b9150612b7783611bcc565b925082821015612b8a57612b89612700565b5b828203905092915050565b6000608082019050612baa60008301876120ee565b612bb760208301866120c4565b612bc460408301856120c4565b612bd160608301846120ee565b95945050505050565b7f4f6e6c792074686520636f6d70616e792063616e20776974686472617720667560008201527f6e64730000000000000000000000000000000000000000000000000000000000602082015250565b6000612c3660238361219b565b9150612c4182612bda565b604082019050919050565b60006020820190508181036000830152612c6581612c29565b9050919050565b7f4e6f2066756e647320746f207769746864726177000000000000000000000000600082015250565b6000612ca260148361219b565b9150612cad82612c6c565b602082019050919050565b60006020820190508181036000830152612cd181612c95565b9050919050565b7f5769746864726177616c206661696c65642e0000000000000000000000000000600082015250565b6000612d0e60128361219b565b9150612d1982612cd8565b602082019050919050565b60006020820190508181036000830152612d3d81612d01565b9050919050565b7f4f7264657220697320616c726561647920706169640000000000000000000000600082015250565b6000612d7a60158361219b565b9150612d8582612d44565b602082019050919050565b60006020820190508181036000830152612da981612d6d565b9050919050565b7f53656e7420457468657220646f6573206e6f74206d617463682074686520707260008201527f696365206f6620746865206f7264657200000000000000000000000000000000602082015250565b6000612e0c60308361219b565b9150612e1782612db0565b604082019050919050565b60006020820190508181036000830152612e3b81612dff565b9050919050565b6000604082019050612e5760008301856120ee565b612e6460208301846120ee565b939250505056fea2646970667358221220fcf2dd9c9373eb57a357a881c026a9697a7ad597c326188f1f7b5933b7b5541864736f6c634300080d0033",
  "immutableReferences": {},
  "source": "// SPDX-License-Identifier: GPL-3.0\r\n\r\npragma solidity >=0.8.2 <0.9.0;\r\n\r\ncontract Logistics {\r\n\r\n    //      \r\n    struct Order {\r\n        address sender;      //  \r\n        address recipient;   //  \r\n        uint distance;       //      \r\n        string cargoType;    //  \r\n        uint price;          //   ( wei)\r\n        bool isPaid;         //   \r\n        bool isCompleted;    // ,   ,   \r\n        bool isCancelled;    // , ,   \r\n    }\r\n\r\n    //      \r\n    struct Review {\r\n        uint orderId;        //  ,    \r\n        address reviewer;    //  ,  \r\n        string comment;      //  \r\n        uint rating;         //     1  5\r\n    }\r\n\r\n    //       \r\n    Order[] public orders;\r\n    Review[] public reviews;\r\n\r\n    //   ()\r\n    address public companyAddress;\r\n\r\n    //    \r\n    event OrderAdded(uint orderId, address sender, address recipient, uint price);\r\n    event OrderPaid(uint orderId, uint amount);\r\n    event OrderCompleted(uint orderId);\r\n    event OrderCancelled(uint orderId);\r\n    event ReviewAdded(uint orderId, address reviewer, uint rating);\r\n\r\n    //  \r\n    constructor() {\r\n        companyAddress = msg.sender;\r\n    }\r\n\r\n    //  \r\n    modifier onlySender(uint _orderId) {\r\n        require(msg.sender == orders[_orderId].sender, \"Only the sender can perform this action\");\r\n        _;\r\n    }\r\n\r\n    modifier onlyRecipient(uint _orderId) {\r\n        require(msg.sender == orders[_orderId].recipient, \"Only the recipient can perform this action\");\r\n        _;\r\n    }\r\n\r\n    //      ( )\r\n    function addOrder(address _recipient, uint _distance, string memory _cargoType, uint _price) public {\r\n        require(_recipient != msg.sender, \"Sender and recipient cannot be the same person\");\r\n        orders.push(Order(msg.sender, _recipient, _distance, _cargoType, _price, false, false, false));\r\n        emit OrderAdded(orders.length - 1, msg.sender, _recipient, _price);\r\n    }\r\n\r\n    //    \r\n    function payForOrder(uint _orderId) public payable onlySender(_orderId) {\r\n        Order storage order = orders[_orderId];\r\n        require(!order.isPaid, \"Order is already paid\");\r\n        require(msg.value == order.price, \"Sent Ether does not match the price of the order\");\r\n\r\n        //   \r\n        order.isPaid = true;\r\n        emit OrderPaid(_orderId, msg.value);\r\n    }\r\n\r\n    //       \r\n    function completeOrder(uint _orderId, string memory _comment, uint _rating) public onlyRecipient(_orderId) {\r\n        Order storage order = orders[_orderId];\r\n        require(order.isPaid, \"Order must be paid before completion\");\r\n        require(!order.isCompleted, \"The order has already been completed\");\r\n        require(!order.isCancelled, \"The order was canceled\");\r\n        require(_rating >= 1 && _rating <= 5, \"Rating must be between 1 and 5\");\r\n\r\n        order.isCompleted = true;\r\n\r\n        //   \r\n        reviews.push(Review(_orderId, msg.sender, _comment, _rating));\r\n        emit ReviewAdded(_orderId, msg.sender, _rating);\r\n\r\n        emit OrderCompleted(_orderId);\r\n        //     ()\r\n    }\r\n\r\n    //    \r\n    function cancelOrder(uint _orderId) public onlySender(_orderId) {\r\n        Order storage order = orders[_orderId];\r\n        require(!order.isCompleted, \"You cannot cancel a completed order\");\r\n        require(!order.isCancelled, \"Order is already cancelled\");\r\n\r\n        order.isCancelled = true;\r\n\r\n        //      ,    \r\n        if (order.isPaid) {\r\n            uint refundAmount = order.price;\r\n            order.isPaid = false;\r\n            (bool success, ) = payable(order.sender).call{value: refundAmount}(\"\");\r\n            require(success, \"Refund failed.\");\r\n        }\r\n\r\n        emit OrderCancelled(_orderId);\r\n    }\r\n\r\n    //       \r\n    function getOrderCount() public view returns (uint) {\r\n        return orders.length;\r\n    }\r\n\r\n    //       \r\n    function getReviewCount() public view returns (uint) {\r\n        return reviews.length;\r\n    }\r\n\r\n    //       ID\r\n    function getOrder(uint _orderId) public view returns (\r\n        address sender,\r\n        address recipient,\r\n        uint distance,\r\n        string memory cargoType,\r\n        uint price,\r\n        bool isPaid,\r\n        bool isCompleted,\r\n        bool isCancelled\r\n    ) {\r\n        Order storage order = orders[_orderId];\r\n        return (\r\n            order.sender,\r\n            order.recipient,\r\n            order.distance,\r\n            order.cargoType,\r\n            order.price,\r\n            order.isPaid,\r\n            order.isCompleted,\r\n            order.isCancelled\r\n        );\r\n    }\r\n\r\n    //  \r\n\r\n    //     \r\n    function withdrawCompanyFunds() public {\r\n        require(msg.sender == companyAddress, \"Only the company can withdraw funds\");\r\n        uint balance = address(this).balance;\r\n        require(balance > 0, \"No funds to withdraw\");\r\n        (bool success, ) = payable(companyAddress).call{value: balance}(\"\");\r\n        require(success, \"Withdrawal failed.\");\r\n    }\r\n\r\n    //       \r\n    function getReviewsByOrder(uint _orderId) public view returns (Review[] memory) {\r\n        uint reviewCount = 0;\r\n\r\n        //      \r\n        for (uint i = 0; i < reviews.length; i++) {\r\n            if (reviews[i].orderId == _orderId) {\r\n                reviewCount++;\r\n            }\r\n        }\r\n\r\n        //      \r\n        Review[] memory orderReviews = new Review[](reviewCount);\r\n        uint index = 0;\r\n\r\n        for (uint i = 0; i < reviews.length; i++) {\r\n            if (reviews[i].orderId == _orderId) {\r\n                orderReviews[index] = reviews[i];\r\n                index++;\r\n            }\r\n        }\r\n\r\n        return orderReviews;\r\n    }\r\n\r\n    //      \r\n    function getAverageRating() public view returns (uint) {\r\n        uint totalRating = 0;\r\n        uint totalReviews = reviews.length;\r\n\r\n        if (totalReviews == 0) {\r\n            return 0;\r\n        }\r\n\r\n        for (uint i = 0; i < totalReviews; i++) {\r\n            totalRating += reviews[i].rating;\r\n        }\r\n\r\n        return totalRating / totalReviews;\r\n    }\r\n\r\n    //      \r\n    function getOrdersBySender(address _sender) public view returns (Order[] memory) {\r\n        uint count = 0;\r\n\r\n        //      \r\n        for (uint i = 0; i < orders.length; i++) {\r\n            if (orders[i].sender == _sender) {\r\n                count++;\r\n            }\r\n        }\r\n\r\n        //     \r\n        Order[] memory senderOrders = new Order[](count);\r\n        uint index = 0;\r\n\r\n        for (uint i = 0; i < orders.length; i++) {\r\n            if (orders[i].sender == _sender) {\r\n                senderOrders[index] = orders[i];\r\n                index++;\r\n            }\r\n        }\r\n\r\n        return senderOrders;\r\n    }\r\n}\r\n",
  "sourcePath": "D:\\\\blockchain_kr\\contracts\\Logistics.sol",
  "compiler": {
    "name": "solc",
    "version": "0.8.13+commit.abaa5c0e.Emscripten.clang"
  },
  "schemaVersion": "3.4.16",
  "updatedAt": "2024-12-03T20:03:56.017Z",
  "networkType": "ethereum",
  "devdoc": {
    "kind": "dev",
    "methods": {},
    "version": 1
  },
  "userdoc": {
    "kind": "user",
    "methods": {},
    "version": 1
  }
}